{
  "contractName": "FractionalNFT",
  "abi": [
    {
      "inputs": [
        {
          "internalType": "string",
          "name": "_name",
          "type": "string"
        },
        {
          "internalType": "string",
          "name": "_symbol",
          "type": "string"
        },
        {
          "internalType": "string",
          "name": "_initBaseURI",
          "type": "string"
        }
      ],
      "stateMutability": "nonpayable",
      "type": "constructor"
    },
    {
      "anonymous": false,
      "inputs": [
        {
          "indexed": true,
          "internalType": "address",
          "name": "owner",
          "type": "address"
        },
        {
          "indexed": true,
          "internalType": "address",
          "name": "approved",
          "type": "address"
        },
        {
          "indexed": true,
          "internalType": "uint256",
          "name": "tokenId",
          "type": "uint256"
        }
      ],
      "name": "Approval",
      "type": "event"
    },
    {
      "anonymous": false,
      "inputs": [
        {
          "indexed": true,
          "internalType": "address",
          "name": "owner",
          "type": "address"
        },
        {
          "indexed": true,
          "internalType": "address",
          "name": "operator",
          "type": "address"
        },
        {
          "indexed": false,
          "internalType": "bool",
          "name": "approved",
          "type": "bool"
        }
      ],
      "name": "ApprovalForAll",
      "type": "event"
    },
    {
      "anonymous": false,
      "inputs": [
        {
          "indexed": true,
          "internalType": "address",
          "name": "previousOwner",
          "type": "address"
        },
        {
          "indexed": true,
          "internalType": "address",
          "name": "newOwner",
          "type": "address"
        }
      ],
      "name": "OwnershipTransferred",
      "type": "event"
    },
    {
      "anonymous": false,
      "inputs": [
        {
          "indexed": true,
          "internalType": "address",
          "name": "from",
          "type": "address"
        },
        {
          "indexed": true,
          "internalType": "address",
          "name": "to",
          "type": "address"
        },
        {
          "indexed": true,
          "internalType": "uint256",
          "name": "tokenId",
          "type": "uint256"
        }
      ],
      "name": "Transfer",
      "type": "event"
    },
    {
      "inputs": [
        {
          "internalType": "address",
          "name": "to",
          "type": "address"
        },
        {
          "internalType": "uint256",
          "name": "tokenId",
          "type": "uint256"
        }
      ],
      "name": "approve",
      "outputs": [],
      "stateMutability": "nonpayable",
      "type": "function"
    },
    {
      "inputs": [
        {
          "internalType": "address",
          "name": "owner",
          "type": "address"
        }
      ],
      "name": "balanceOf",
      "outputs": [
        {
          "internalType": "uint256",
          "name": "",
          "type": "uint256"
        }
      ],
      "stateMutability": "view",
      "type": "function",
      "constant": true
    },
    {
      "inputs": [],
      "name": "baseExtension",
      "outputs": [
        {
          "internalType": "string",
          "name": "",
          "type": "string"
        }
      ],
      "stateMutability": "view",
      "type": "function",
      "constant": true
    },
    {
      "inputs": [],
      "name": "cost",
      "outputs": [
        {
          "internalType": "uint256",
          "name": "",
          "type": "uint256"
        }
      ],
      "stateMutability": "view",
      "type": "function",
      "constant": true
    },
    {
      "inputs": [
        {
          "internalType": "uint256",
          "name": "tokenId",
          "type": "uint256"
        }
      ],
      "name": "getApproved",
      "outputs": [
        {
          "internalType": "address",
          "name": "",
          "type": "address"
        }
      ],
      "stateMutability": "view",
      "type": "function",
      "constant": true
    },
    {
      "inputs": [
        {
          "internalType": "address",
          "name": "owner",
          "type": "address"
        },
        {
          "internalType": "address",
          "name": "operator",
          "type": "address"
        }
      ],
      "name": "isApprovedForAll",
      "outputs": [
        {
          "internalType": "bool",
          "name": "",
          "type": "bool"
        }
      ],
      "stateMutability": "view",
      "type": "function",
      "constant": true
    },
    {
      "inputs": [],
      "name": "maxSupply",
      "outputs": [
        {
          "internalType": "uint256",
          "name": "",
          "type": "uint256"
        }
      ],
      "stateMutability": "view",
      "type": "function",
      "constant": true
    },
    {
      "inputs": [],
      "name": "name",
      "outputs": [
        {
          "internalType": "string",
          "name": "",
          "type": "string"
        }
      ],
      "stateMutability": "view",
      "type": "function",
      "constant": true
    },
    {
      "inputs": [],
      "name": "owner",
      "outputs": [
        {
          "internalType": "address",
          "name": "",
          "type": "address"
        }
      ],
      "stateMutability": "view",
      "type": "function",
      "constant": true
    },
    {
      "inputs": [
        {
          "internalType": "uint256",
          "name": "tokenId",
          "type": "uint256"
        }
      ],
      "name": "ownerOf",
      "outputs": [
        {
          "internalType": "address",
          "name": "",
          "type": "address"
        }
      ],
      "stateMutability": "view",
      "type": "function",
      "constant": true
    },
    {
      "inputs": [],
      "name": "renounceOwnership",
      "outputs": [],
      "stateMutability": "nonpayable",
      "type": "function"
    },
    {
      "inputs": [
        {
          "internalType": "address",
          "name": "from",
          "type": "address"
        },
        {
          "internalType": "address",
          "name": "to",
          "type": "address"
        },
        {
          "internalType": "uint256",
          "name": "tokenId",
          "type": "uint256"
        }
      ],
      "name": "safeTransferFrom",
      "outputs": [],
      "stateMutability": "nonpayable",
      "type": "function"
    },
    {
      "inputs": [
        {
          "internalType": "address",
          "name": "from",
          "type": "address"
        },
        {
          "internalType": "address",
          "name": "to",
          "type": "address"
        },
        {
          "internalType": "uint256",
          "name": "tokenId",
          "type": "uint256"
        },
        {
          "internalType": "bytes",
          "name": "_data",
          "type": "bytes"
        }
      ],
      "name": "safeTransferFrom",
      "outputs": [],
      "stateMutability": "nonpayable",
      "type": "function"
    },
    {
      "inputs": [
        {
          "internalType": "address",
          "name": "operator",
          "type": "address"
        },
        {
          "internalType": "bool",
          "name": "approved",
          "type": "bool"
        }
      ],
      "name": "setApprovalForAll",
      "outputs": [],
      "stateMutability": "nonpayable",
      "type": "function"
    },
    {
      "inputs": [
        {
          "internalType": "bytes4",
          "name": "interfaceId",
          "type": "bytes4"
        }
      ],
      "name": "supportsInterface",
      "outputs": [
        {
          "internalType": "bool",
          "name": "",
          "type": "bool"
        }
      ],
      "stateMutability": "view",
      "type": "function",
      "constant": true
    },
    {
      "inputs": [],
      "name": "symbol",
      "outputs": [
        {
          "internalType": "string",
          "name": "",
          "type": "string"
        }
      ],
      "stateMutability": "view",
      "type": "function",
      "constant": true
    },
    {
      "inputs": [
        {
          "internalType": "uint256",
          "name": "index",
          "type": "uint256"
        }
      ],
      "name": "tokenByIndex",
      "outputs": [
        {
          "internalType": "uint256",
          "name": "",
          "type": "uint256"
        }
      ],
      "stateMutability": "view",
      "type": "function",
      "constant": true
    },
    {
      "inputs": [
        {
          "internalType": "address",
          "name": "owner",
          "type": "address"
        },
        {
          "internalType": "uint256",
          "name": "index",
          "type": "uint256"
        }
      ],
      "name": "tokenOfOwnerByIndex",
      "outputs": [
        {
          "internalType": "uint256",
          "name": "",
          "type": "uint256"
        }
      ],
      "stateMutability": "view",
      "type": "function",
      "constant": true
    },
    {
      "inputs": [],
      "name": "totalSupply",
      "outputs": [
        {
          "internalType": "uint256",
          "name": "",
          "type": "uint256"
        }
      ],
      "stateMutability": "view",
      "type": "function",
      "constant": true
    },
    {
      "inputs": [
        {
          "internalType": "address",
          "name": "from",
          "type": "address"
        },
        {
          "internalType": "address",
          "name": "to",
          "type": "address"
        },
        {
          "internalType": "uint256",
          "name": "tokenId",
          "type": "uint256"
        }
      ],
      "name": "transferFrom",
      "outputs": [],
      "stateMutability": "nonpayable",
      "type": "function"
    },
    {
      "inputs": [
        {
          "internalType": "address",
          "name": "newOwner",
          "type": "address"
        }
      ],
      "name": "transferOwnership",
      "outputs": [],
      "stateMutability": "nonpayable",
      "type": "function"
    },
    {
      "inputs": [],
      "name": "mint",
      "outputs": [],
      "stateMutability": "payable",
      "type": "function",
      "payable": true
    },
    {
      "inputs": [
        {
          "internalType": "uint256",
          "name": "tokenId",
          "type": "uint256"
        }
      ],
      "name": "tokenURI",
      "outputs": [
        {
          "internalType": "string",
          "name": "",
          "type": "string"
        }
      ],
      "stateMutability": "view",
      "type": "function",
      "constant": true
    },
    {
      "inputs": [
        {
          "internalType": "string",
          "name": "_newBaseURI",
          "type": "string"
        }
      ],
      "name": "setBaseURI",
      "outputs": [],
      "stateMutability": "nonpayable",
      "type": "function"
    }
  ],
  "bytecode": "0x6080604052670de0b6b3a7640000600b556014600c556040518060400160405280600581526020017f2e6a736f6e000000000000000000000000000000000000000000000000000000815250600e908051906020019062000062929190620002a9565b503480156200007057600080fd5b5060405162003f4f38038062003f4f8339818101604052810190620000969190620004f6565b82828160009080519060200190620000b0929190620002a9565b508060019080519060200190620000c9929190620002a9565b505050620000ec620000e06200010660201b60201c565b6200010e60201b60201c565b620000fd81620001d460201b60201c565b50505062000697565b600033905090565b6000600a60009054906101000a900473ffffffffffffffffffffffffffffffffffffffff16905081600a60006101000a81548173ffffffffffffffffffffffffffffffffffffffff021916908373ffffffffffffffffffffffffffffffffffffffff1602179055508173ffffffffffffffffffffffffffffffffffffffff168173ffffffffffffffffffffffffffffffffffffffff167f8be0079c531659141344cd1fd0a4f28419497f9722a3daafe3b4186f6b6457e060405160405180910390a35050565b620001e46200010660201b60201c565b73ffffffffffffffffffffffffffffffffffffffff166200020a6200027f60201b60201c565b73ffffffffffffffffffffffffffffffffffffffff161462000263576040517f08c379a00000000000000000000000000000000000000000000000000000000081526004016200025a9062000610565b60405180910390fd5b80600d90805190602001906200027b929190620002a9565b5050565b6000600a60009054906101000a900473ffffffffffffffffffffffffffffffffffffffff16905090565b828054620002b79062000661565b90600052602060002090601f016020900481019282620002db576000855562000327565b82601f10620002f657805160ff191683800117855562000327565b8280016001018555821562000327579182015b828111156200032657825182559160200191906001019062000309565b5b5090506200033691906200033a565b5090565b5b80821115620003555760008160009055506001016200033b565b5090565b6000604051905090565b600080fd5b600080fd5b600080fd5b600080fd5b6000601f19601f8301169050919050565b7f4e487b7100000000000000000000000000000000000000000000000000000000600052604160045260246000fd5b620003c28262000377565b810181811067ffffffffffffffff82111715620003e457620003e362000388565b5b80604052505050565b6000620003f962000359565b9050620004078282620003b7565b919050565b600067ffffffffffffffff8211156200042a576200042962000388565b5b620004358262000377565b9050602081019050919050565b60005b838110156200046257808201518184015260208101905062000445565b8381111562000472576000848401525b50505050565b60006200048f62000489846200040c565b620003ed565b905082815260208101848484011115620004ae57620004ad62000372565b5b620004bb84828562000442565b509392505050565b600082601f830112620004db57620004da6200036d565b5b8151620004ed84826020860162000478565b91505092915050565b60008060006060848603121562000512576200051162000363565b5b600084015167ffffffffffffffff81111562000533576200053262000368565b5b6200054186828701620004c3565b935050602084015167ffffffffffffffff81111562000565576200056462000368565b5b6200057386828701620004c3565b925050604084015167ffffffffffffffff81111562000597576200059662000368565b5b620005a586828701620004c3565b9150509250925092565b600082825260208201905092915050565b7f4f776e61626c653a2063616c6c6572206973206e6f7420746865206f776e6572600082015250565b6000620005f8602083620005af565b91506200060582620005c0565b602082019050919050565b600060208201905081810360008301526200062b81620005e9565b9050919050565b7f4e487b7100000000000000000000000000000000000000000000000000000000600052602260045260246000fd5b600060028204905060018216806200067a57607f821691505b6020821081141562000691576200069062000632565b5b50919050565b6138a880620006a76000396000f3fe60806040526004361061014b5760003560e01c80636352211e116100b6578063b88d4fde1161006f578063b88d4fde14610483578063c6682862146104ac578063c87b56dd146104d7578063d5abeb0114610514578063e985e9c51461053f578063f2fde38b1461057c5761014b565b80636352211e1461037357806370a08231146103b0578063715018a6146103ed5780638da5cb5b1461040457806395d89b411461042f578063a22cb4651461045a5761014b565b806318160ddd1161010857806318160ddd1461025357806323b872dd1461027e5780632f745c59146102a757806342842e0e146102e45780634f6ccce71461030d57806355f804b31461034a5761014b565b806301ffc9a71461015057806306fdde031461018d578063081812fc146101b8578063095ea7b3146101f55780631249c58b1461021e57806313faede614610228575b600080fd5b34801561015c57600080fd5b506101776004803603810190610172919061244f565b6105a5565b6040516101849190612497565b60405180910390f35b34801561019957600080fd5b506101a261061f565b6040516101af919061254b565b60405180910390f35b3480156101c457600080fd5b506101df60048036038101906101da91906125a3565b6106b1565b6040516101ec9190612611565b60405180910390f35b34801561020157600080fd5b5061021c60048036038101906102179190612658565b610736565b005b61022661084e565b005b34801561023457600080fd5b5061023d6108cc565b60405161024a91906126a7565b60405180910390f35b34801561025f57600080fd5b506102686108d2565b60405161027591906126a7565b60405180910390f35b34801561028a57600080fd5b506102a560048036038101906102a091906126c2565b6108df565b005b3480156102b357600080fd5b506102ce60048036038101906102c99190612658565b61093f565b6040516102db91906126a7565b60405180910390f35b3480156102f057600080fd5b5061030b600480360381019061030691906126c2565b6109e4565b005b34801561031957600080fd5b50610334600480360381019061032f91906125a3565b610a04565b60405161034191906126a7565b60405180910390f35b34801561035657600080fd5b50610371600480360381019061036c919061284a565b610a75565b005b34801561037f57600080fd5b5061039a600480360381019061039591906125a3565b610b0b565b6040516103a79190612611565b60405180910390f35b3480156103bc57600080fd5b506103d760048036038101906103d29190612893565b610bbd565b6040516103e491906126a7565b60405180910390f35b3480156103f957600080fd5b50610402610c75565b005b34801561041057600080fd5b50610419610cfd565b6040516104269190612611565b60405180910390f35b34801561043b57600080fd5b50610444610d27565b604051610451919061254b565b60405180910390f35b34801561046657600080fd5b50610481600480360381019061047c91906128ec565b610db9565b005b34801561048f57600080fd5b506104aa60048036038101906104a591906129cd565b610dcf565b005b3480156104b857600080fd5b506104c1610e31565b6040516104ce919061254b565b60405180910390f35b3480156104e357600080fd5b506104fe60048036038101906104f991906125a3565b610ebf565b60405161050b919061254b565b60405180910390f35b34801561052057600080fd5b50610529610f69565b60405161053691906126a7565b60405180910390f35b34801561054b57600080fd5b5061056660048036038101906105619190612a50565b610f6f565b6040516105739190612497565b60405180910390f35b34801561058857600080fd5b506105a3600480360381019061059e9190612893565b611003565b005b60007f780e9d63000000000000000000000000000000000000000000000000000000007bffffffffffffffffffffffffffffffffffffffffffffffffffffffff1916827bffffffffffffffffffffffffffffffffffffffffffffffffffffffff191614806106185750610617826110fb565b5b9050919050565b60606000805461062e90612abf565b80601f016020809104026020016040519081016040528092919081815260200182805461065a90612abf565b80156106a75780601f1061067c576101008083540402835291602001916106a7565b820191906000526020600020905b81548152906001019060200180831161068a57829003601f168201915b5050505050905090565b60006106bc826111dd565b6106fb576040517f08c379a00000000000000000000000000000000000000000000000000000000081526004016106f290612b63565b60405180910390fd5b6004600083815260200190815260200160002060009054906101000a900473ffffffffffffffffffffffffffffffffffffffff169050919050565b600061074182610b0b565b90508073ffffffffffffffffffffffffffffffffffffffff168373ffffffffffffffffffffffffffffffffffffffff1614156107b2576040517f08c379a00000000000000000000000000000000000000000000000000000000081526004016107a990612bf5565b60405180910390fd5b8073ffffffffffffffffffffffffffffffffffffffff166107d1611249565b73ffffffffffffffffffffffffffffffffffffffff16148061080057506107ff816107fa611249565b610f6f565b5b61083f576040517f08c379a000000000000000000000000000000000000000000000000000000000815260040161083690612c87565b60405180910390fd5b6108498383611251565b505050565b60006108586108d2565b9050600c5481111561086957600080fd5b610871610cfd565b73ffffffffffffffffffffffffffffffffffffffff163373ffffffffffffffffffffffffffffffffffffffff16146108b357600b543410156108b257600080fd5b5b6108c9336001836108c49190612cd6565b61130a565b50565b600b5481565b6000600880549050905090565b6108f06108ea611249565b82611328565b61092f576040517f08c379a000000000000000000000000000000000000000000000000000000000815260040161092690612d9e565b60405180910390fd5b61093a838383611406565b505050565b600061094a83610bbd565b821061098b576040517f08c379a000000000000000000000000000000000000000000000000000000000815260040161098290612e30565b60405180910390fd5b600660008473ffffffffffffffffffffffffffffffffffffffff1673ffffffffffffffffffffffffffffffffffffffff168152602001908152602001600020600083815260200190815260200160002054905092915050565b6109ff83838360405180602001604052806000815250610dcf565b505050565b6000610a0e6108d2565b8210610a4f576040517f08c379a0000000000000000000000000000000000000000000000000000000008152600401610a4690612ec2565b60405180910390fd5b60088281548110610a6357610a62612ee2565b5b90600052602060002001549050919050565b610a7d611249565b73ffffffffffffffffffffffffffffffffffffffff16610a9b610cfd565b73ffffffffffffffffffffffffffffffffffffffff1614610af1576040517f08c379a0000000000000000000000000000000000000000000000000000000008152600401610ae890612f5d565b60405180910390fd5b80600d9080519060200190610b07929190612340565b5050565b6000806002600084815260200190815260200160002060009054906101000a900473ffffffffffffffffffffffffffffffffffffffff169050600073ffffffffffffffffffffffffffffffffffffffff168173ffffffffffffffffffffffffffffffffffffffff161415610bb4576040517f08c379a0000000000000000000000000000000000000000000000000000000008152600401610bab90612fef565b60405180910390fd5b80915050919050565b60008073ffffffffffffffffffffffffffffffffffffffff168273ffffffffffffffffffffffffffffffffffffffff161415610c2e576040517f08c379a0000000000000000000000000000000000000000000000000000000008152600401610c2590613081565b60405180910390fd5b600360008373ffffffffffffffffffffffffffffffffffffffff1673ffffffffffffffffffffffffffffffffffffffff168152602001908152602001600020549050919050565b610c7d611249565b73ffffffffffffffffffffffffffffffffffffffff16610c9b610cfd565b73ffffffffffffffffffffffffffffffffffffffff1614610cf1576040517f08c379a0000000000000000000000000000000000000000000000000000000008152600401610ce890612f5d565b60405180910390fd5b610cfb6000611662565b565b6000600a60009054906101000a900473ffffffffffffffffffffffffffffffffffffffff16905090565b606060018054610d3690612abf565b80601f0160208091040260200160405190810160405280929190818152602001828054610d6290612abf565b8015610daf5780601f10610d8457610100808354040283529160200191610daf565b820191906000526020600020905b815481529060010190602001808311610d9257829003601f168201915b5050505050905090565b610dcb610dc4611249565b8383611728565b5050565b610de0610dda611249565b83611328565b610e1f576040517f08c379a0000000000000000000000000000000000000000000000000000000008152600401610e1690612d9e565b60405180910390fd5b610e2b84848484611895565b50505050565b600e8054610e3e90612abf565b80601f0160208091040260200160405190810160405280929190818152602001828054610e6a90612abf565b8015610eb75780601f10610e8c57610100808354040283529160200191610eb7565b820191906000526020600020905b815481529060010190602001808311610e9a57829003601f168201915b505050505081565b6060610eca826111dd565b610f09576040517f08c379a0000000000000000000000000000000000000000000000000000000008152600401610f0090613113565b60405180910390fd5b6000610f136118f1565b90506000815111610f335760405180602001604052806000815250610f61565b80610f3d84611983565b600e604051602001610f5193929190613203565b6040516020818303038152906040525b915050919050565b600c5481565b6000600560008473ffffffffffffffffffffffffffffffffffffffff1673ffffffffffffffffffffffffffffffffffffffff16815260200190815260200160002060008373ffffffffffffffffffffffffffffffffffffffff1673ffffffffffffffffffffffffffffffffffffffff16815260200190815260200160002060009054906101000a900460ff16905092915050565b61100b611249565b73ffffffffffffffffffffffffffffffffffffffff16611029610cfd565b73ffffffffffffffffffffffffffffffffffffffff161461107f576040517f08c379a000000000000000000000000000000000000000000000000000000000815260040161107690612f5d565b60405180910390fd5b600073ffffffffffffffffffffffffffffffffffffffff168173ffffffffffffffffffffffffffffffffffffffff1614156110ef576040517f08c379a00000000000000000000000000000000000000000000000000000000081526004016110e6906132a6565b60405180910390fd5b6110f881611662565b50565b60007f80ac58cd000000000000000000000000000000000000000000000000000000007bffffffffffffffffffffffffffffffffffffffffffffffffffffffff1916827bffffffffffffffffffffffffffffffffffffffffffffffffffffffff191614806111c657507f5b5e139f000000000000000000000000000000000000000000000000000000007bffffffffffffffffffffffffffffffffffffffffffffffffffffffff1916827bffffffffffffffffffffffffffffffffffffffffffffffffffffffff1916145b806111d657506111d582611ae4565b5b9050919050565b60008073ffffffffffffffffffffffffffffffffffffffff166002600084815260200190815260200160002060009054906101000a900473ffffffffffffffffffffffffffffffffffffffff1673ffffffffffffffffffffffffffffffffffffffff1614159050919050565b600033905090565b816004600083815260200190815260200160002060006101000a81548173ffffffffffffffffffffffffffffffffffffffff021916908373ffffffffffffffffffffffffffffffffffffffff160217905550808273ffffffffffffffffffffffffffffffffffffffff166112c483610b0b565b73ffffffffffffffffffffffffffffffffffffffff167f8c5be1e5ebec7d5bd14f71427d1e84f3dd0314c0f7b2291e5b200ac8c7c3b92560405160405180910390a45050565b611324828260405180602001604052806000815250611b4e565b5050565b6000611333826111dd565b611372576040517f08c379a000000000000000000000000000000000000000000000000000000000815260040161136990613338565b60405180910390fd5b600061137d83610b0b565b90508073ffffffffffffffffffffffffffffffffffffffff168473ffffffffffffffffffffffffffffffffffffffff1614806113ec57508373ffffffffffffffffffffffffffffffffffffffff166113d4846106b1565b73ffffffffffffffffffffffffffffffffffffffff16145b806113fd57506113fc8185610f6f565b5b91505092915050565b8273ffffffffffffffffffffffffffffffffffffffff1661142682610b0b565b73ffffffffffffffffffffffffffffffffffffffff161461147c576040517f08c379a0000000000000000000000000000000000000000000000000000000008152600401611473906133ca565b60405180910390fd5b600073ffffffffffffffffffffffffffffffffffffffff168273ffffffffffffffffffffffffffffffffffffffff1614156114ec576040517f08c379a00000000000000000000000000000000000000000000000000000000081526004016114e39061345c565b60405180910390fd5b6114f7838383611ba9565b611502600082611251565b6001600360008573ffffffffffffffffffffffffffffffffffffffff1673ffffffffffffffffffffffffffffffffffffffff1681526020019081526020016000206000828254611552919061347c565b925050819055506001600360008473ffffffffffffffffffffffffffffffffffffffff1673ffffffffffffffffffffffffffffffffffffffff16815260200190815260200160002060008282546115a99190612cd6565b92505081905550816002600083815260200190815260200160002060006101000a81548173ffffffffffffffffffffffffffffffffffffffff021916908373ffffffffffffffffffffffffffffffffffffffff160217905550808273ffffffffffffffffffffffffffffffffffffffff168473ffffffffffffffffffffffffffffffffffffffff167fddf252ad1be2c89b69c2b068fc378daa952ba7f163c4a11628f55a4df523b3ef60405160405180910390a4505050565b6000600a60009054906101000a900473ffffffffffffffffffffffffffffffffffffffff16905081600a60006101000a81548173ffffffffffffffffffffffffffffffffffffffff021916908373ffffffffffffffffffffffffffffffffffffffff1602179055508173ffffffffffffffffffffffffffffffffffffffff168173ffffffffffffffffffffffffffffffffffffffff167f8be0079c531659141344cd1fd0a4f28419497f9722a3daafe3b4186f6b6457e060405160405180910390a35050565b8173ffffffffffffffffffffffffffffffffffffffff168373ffffffffffffffffffffffffffffffffffffffff161415611797576040517f08c379a000000000000000000000000000000000000000000000000000000000815260040161178e906134fc565b60405180910390fd5b80600560008573ffffffffffffffffffffffffffffffffffffffff1673ffffffffffffffffffffffffffffffffffffffff16815260200190815260200160002060008473ffffffffffffffffffffffffffffffffffffffff1673ffffffffffffffffffffffffffffffffffffffff16815260200190815260200160002060006101000a81548160ff0219169083151502179055508173ffffffffffffffffffffffffffffffffffffffff168373ffffffffffffffffffffffffffffffffffffffff167f17307eab39ab6107e8899845ad3d59bd9653f200f220920489ca2b5937696c31836040516118889190612497565b60405180910390a3505050565b6118a0848484611406565b6118ac84848484611cbd565b6118eb576040517f08c379a00000000000000000000000000000000000000000000000000000000081526004016118e29061358e565b60405180910390fd5b50505050565b6060600d805461190090612abf565b80601f016020809104026020016040519081016040528092919081815260200182805461192c90612abf565b80156119795780601f1061194e57610100808354040283529160200191611979565b820191906000526020600020905b81548152906001019060200180831161195c57829003601f168201915b5050505050905090565b606060008214156119cb576040518060400160405280600181526020017f30000000000000000000000000000000000000000000000000000000000000008152509050611adf565b600082905060005b600082146119fd5780806119e6906135ae565b915050600a826119f69190613626565b91506119d3565b60008167ffffffffffffffff811115611a1957611a1861271f565b5b6040519080825280601f01601f191660200182016040528015611a4b5781602001600182028036833780820191505090505b5090505b60008514611ad857600182611a64919061347c565b9150600a85611a739190613657565b6030611a7f9190612cd6565b60f81b818381518110611a9557611a94612ee2565b5b60200101907effffffffffffffffffffffffffffffffffffffffffffffffffffffffffffff1916908160001a905350600a85611ad19190613626565b9450611a4f565b8093505050505b919050565b60007f01ffc9a7000000000000000000000000000000000000000000000000000000007bffffffffffffffffffffffffffffffffffffffffffffffffffffffff1916827bffffffffffffffffffffffffffffffffffffffffffffffffffffffff1916149050919050565b611b588383611e54565b611b656000848484611cbd565b611ba4576040517f08c379a0000000000000000000000000000000000000000000000000000000008152600401611b9b9061358e565b60405180910390fd5b505050565b611bb4838383612022565b600073ffffffffffffffffffffffffffffffffffffffff168373ffffffffffffffffffffffffffffffffffffffff161415611bf757611bf281612027565b611c36565b8173ffffffffffffffffffffffffffffffffffffffff168373ffffffffffffffffffffffffffffffffffffffff1614611c3557611c348382612070565b5b5b600073ffffffffffffffffffffffffffffffffffffffff168273ffffffffffffffffffffffffffffffffffffffff161415611c7957611c74816121dd565b611cb8565b8273ffffffffffffffffffffffffffffffffffffffff168273ffffffffffffffffffffffffffffffffffffffff1614611cb757611cb682826122ae565b5b5b505050565b6000611cde8473ffffffffffffffffffffffffffffffffffffffff1661232d565b15611e47578373ffffffffffffffffffffffffffffffffffffffff1663150b7a02611d07611249565b8786866040518563ffffffff1660e01b8152600401611d2994939291906136dd565b602060405180830381600087803b158015611d4357600080fd5b505af1925050508015611d7457506040513d601f19601f82011682018060405250810190611d71919061373e565b60015b611df7573d8060008114611da4576040519150601f19603f3d011682016040523d82523d6000602084013e611da9565b606091505b50600081511415611def576040517f08c379a0000000000000000000000000000000000000000000000000000000008152600401611de69061358e565b60405180910390fd5b805181602001fd5b63150b7a0260e01b7bffffffffffffffffffffffffffffffffffffffffffffffffffffffff1916817bffffffffffffffffffffffffffffffffffffffffffffffffffffffff191614915050611e4c565b600190505b949350505050565b600073ffffffffffffffffffffffffffffffffffffffff168273ffffffffffffffffffffffffffffffffffffffff161415611ec4576040517f08c379a0000000000000000000000000000000000000000000000000000000008152600401611ebb906137b7565b60405180910390fd5b611ecd816111dd565b15611f0d576040517f08c379a0000000000000000000000000000000000000000000000000000000008152600401611f0490613823565b60405180910390fd5b611f1960008383611ba9565b6001600360008473ffffffffffffffffffffffffffffffffffffffff1673ffffffffffffffffffffffffffffffffffffffff1681526020019081526020016000206000828254611f699190612cd6565b92505081905550816002600083815260200190815260200160002060006101000a81548173ffffffffffffffffffffffffffffffffffffffff021916908373ffffffffffffffffffffffffffffffffffffffff160217905550808273ffffffffffffffffffffffffffffffffffffffff16600073ffffffffffffffffffffffffffffffffffffffff167fddf252ad1be2c89b69c2b068fc378daa952ba7f163c4a11628f55a4df523b3ef60405160405180910390a45050565b505050565b6008805490506009600083815260200190815260200160002081905550600881908060018154018082558091505060019003906000526020600020016000909190919091505550565b6000600161207d84610bbd565b612087919061347c565b905060006007600084815260200190815260200160002054905081811461216c576000600660008673ffffffffffffffffffffffffffffffffffffffff1673ffffffffffffffffffffffffffffffffffffffff168152602001908152602001600020600084815260200190815260200160002054905080600660008773ffffffffffffffffffffffffffffffffffffffff1673ffffffffffffffffffffffffffffffffffffffff168152602001908152602001600020600084815260200190815260200160002081905550816007600083815260200190815260200160002081905550505b6007600084815260200190815260200160002060009055600660008573ffffffffffffffffffffffffffffffffffffffff1673ffffffffffffffffffffffffffffffffffffffff16815260200190815260200160002060008381526020019081526020016000206000905550505050565b600060016008805490506121f1919061347c565b905060006009600084815260200190815260200160002054905060006008838154811061222157612220612ee2565b5b90600052602060002001549050806008838154811061224357612242612ee2565b5b90600052602060002001819055508160096000838152602001908152602001600020819055506009600085815260200190815260200160002060009055600880548061229257612291613843565b5b6001900381819060005260206000200160009055905550505050565b60006122b983610bbd565b905081600660008573ffffffffffffffffffffffffffffffffffffffff1673ffffffffffffffffffffffffffffffffffffffff168152602001908152602001600020600083815260200190815260200160002081905550806007600084815260200190815260200160002081905550505050565b600080823b905060008111915050919050565b82805461234c90612abf565b90600052602060002090601f01602090048101928261236e57600085556123b5565b82601f1061238757805160ff19168380011785556123b5565b828001600101855582156123b5579182015b828111156123b4578251825591602001919060010190612399565b5b5090506123c291906123c6565b5090565b5b808211156123df5760008160009055506001016123c7565b5090565b6000604051905090565b600080fd5b600080fd5b60007fffffffff0000000000000000000000000000000000000000000000000000000082169050919050565b61242c816123f7565b811461243757600080fd5b50565b60008135905061244981612423565b92915050565b600060208284031215612465576124646123ed565b5b60006124738482850161243a565b91505092915050565b60008115159050919050565b6124918161247c565b82525050565b60006020820190506124ac6000830184612488565b92915050565b600081519050919050565b600082825260208201905092915050565b60005b838110156124ec5780820151818401526020810190506124d1565b838111156124fb576000848401525b50505050565b6000601f19601f8301169050919050565b600061251d826124b2565b61252781856124bd565b93506125378185602086016124ce565b61254081612501565b840191505092915050565b600060208201905081810360008301526125658184612512565b905092915050565b6000819050919050565b6125808161256d565b811461258b57600080fd5b50565b60008135905061259d81612577565b92915050565b6000602082840312156125b9576125b86123ed565b5b60006125c78482850161258e565b91505092915050565b600073ffffffffffffffffffffffffffffffffffffffff82169050919050565b60006125fb826125d0565b9050919050565b61260b816125f0565b82525050565b60006020820190506126266000830184612602565b92915050565b612635816125f0565b811461264057600080fd5b50565b6000813590506126528161262c565b92915050565b6000806040838503121561266f5761266e6123ed565b5b600061267d85828601612643565b925050602061268e8582860161258e565b9150509250929050565b6126a18161256d565b82525050565b60006020820190506126bc6000830184612698565b92915050565b6000806000606084860312156126db576126da6123ed565b5b60006126e986828701612643565b93505060206126fa86828701612643565b925050604061270b8682870161258e565b9150509250925092565b600080fd5b600080fd5b7f4e487b7100000000000000000000000000000000000000000000000000000000600052604160045260246000fd5b61275782612501565b810181811067ffffffffffffffff821117156127765761277561271f565b5b80604052505050565b60006127896123e3565b9050612795828261274e565b919050565b600067ffffffffffffffff8211156127b5576127b461271f565b5b6127be82612501565b9050602081019050919050565b82818337600083830152505050565b60006127ed6127e88461279a565b61277f565b9050828152602081018484840111156128095761280861271a565b5b6128148482856127cb565b509392505050565b600082601f83011261283157612830612715565b5b81356128418482602086016127da565b91505092915050565b6000602082840312156128605761285f6123ed565b5b600082013567ffffffffffffffff81111561287e5761287d6123f2565b5b61288a8482850161281c565b91505092915050565b6000602082840312156128a9576128a86123ed565b5b60006128b784828501612643565b91505092915050565b6128c98161247c565b81146128d457600080fd5b50565b6000813590506128e6816128c0565b92915050565b60008060408385031215612903576129026123ed565b5b600061291185828601612643565b9250506020612922858286016128d7565b9150509250929050565b600067ffffffffffffffff8211156129475761294661271f565b5b61295082612501565b9050602081019050919050565b600061297061296b8461292c565b61277f565b90508281526020810184848401111561298c5761298b61271a565b5b6129978482856127cb565b509392505050565b600082601f8301126129b4576129b3612715565b5b81356129c484826020860161295d565b91505092915050565b600080600080608085870312156129e7576129e66123ed565b5b60006129f587828801612643565b9450506020612a0687828801612643565b9350506040612a178782880161258e565b925050606085013567ffffffffffffffff811115612a3857612a376123f2565b5b612a448782880161299f565b91505092959194509250565b60008060408385031215612a6757612a666123ed565b5b6000612a7585828601612643565b9250506020612a8685828601612643565b9150509250929050565b7f4e487b7100000000000000000000000000000000000000000000000000000000600052602260045260246000fd5b60006002820490506001821680612ad757607f821691505b60208210811415612aeb57612aea612a90565b5b50919050565b7f4552433732313a20617070726f76656420717565727920666f72206e6f6e657860008201527f697374656e7420746f6b656e0000000000000000000000000000000000000000602082015250565b6000612b4d602c836124bd565b9150612b5882612af1565b604082019050919050565b60006020820190508181036000830152612b7c81612b40565b9050919050565b7f4552433732313a20617070726f76616c20746f2063757272656e74206f776e6560008201527f7200000000000000000000000000000000000000000000000000000000000000602082015250565b6000612bdf6021836124bd565b9150612bea82612b83565b604082019050919050565b60006020820190508181036000830152612c0e81612bd2565b9050919050565b7f4552433732313a20617070726f76652063616c6c6572206973206e6f74206f7760008201527f6e6572206e6f7220617070726f76656420666f7220616c6c0000000000000000602082015250565b6000612c716038836124bd565b9150612c7c82612c15565b604082019050919050565b60006020820190508181036000830152612ca081612c64565b9050919050565b7f4e487b7100000000000000000000000000000000000000000000000000000000600052601160045260246000fd5b6000612ce18261256d565b9150612cec8361256d565b9250827fffffffffffffffffffffffffffffffffffffffffffffffffffffffffffffffff03821115612d2157612d20612ca7565b5b828201905092915050565b7f4552433732313a207472616e736665722063616c6c6572206973206e6f74206f60008201527f776e6572206e6f7220617070726f766564000000000000000000000000000000602082015250565b6000612d886031836124bd565b9150612d9382612d2c565b604082019050919050565b60006020820190508181036000830152612db781612d7b565b9050919050565b7f455243373231456e756d657261626c653a206f776e657220696e646578206f7560008201527f74206f6620626f756e6473000000000000000000000000000000000000000000602082015250565b6000612e1a602b836124bd565b9150612e2582612dbe565b604082019050919050565b60006020820190508181036000830152612e4981612e0d565b9050919050565b7f455243373231456e756d657261626c653a20676c6f62616c20696e646578206f60008201527f7574206f6620626f756e64730000000000000000000000000000000000000000602082015250565b6000612eac602c836124bd565b9150612eb782612e50565b604082019050919050565b60006020820190508181036000830152612edb81612e9f565b9050919050565b7f4e487b7100000000000000000000000000000000000000000000000000000000600052603260045260246000fd5b7f4f776e61626c653a2063616c6c6572206973206e6f7420746865206f776e6572600082015250565b6000612f476020836124bd565b9150612f5282612f11565b602082019050919050565b60006020820190508181036000830152612f7681612f3a565b9050919050565b7f4552433732313a206f776e657220717565727920666f72206e6f6e657869737460008201527f656e7420746f6b656e0000000000000000000000000000000000000000000000602082015250565b6000612fd96029836124bd565b9150612fe482612f7d565b604082019050919050565b6000602082019050818103600083015261300881612fcc565b9050919050565b7f4552433732313a2062616c616e636520717565727920666f7220746865207a6560008201527f726f206164647265737300000000000000000000000000000000000000000000602082015250565b600061306b602a836124bd565b91506130768261300f565b604082019050919050565b6000602082019050818103600083015261309a8161305e565b9050919050565b7f4552433732314d657461646174613a2055524920717565727920666f72206e6f60008201527f6e6578697374656e7420746f6b656e0000000000000000000000000000000000602082015250565b60006130fd602f836124bd565b9150613108826130a1565b604082019050919050565b6000602082019050818103600083015261312c816130f0565b9050919050565b600081905092915050565b6000613149826124b2565b6131538185613133565b93506131638185602086016124ce565b80840191505092915050565b60008190508160005260206000209050919050565b6000815461319181612abf565b61319b8186613133565b945060018216600081146131b657600181146131c7576131fa565b60ff198316865281860193506131fa565b6131d08561316f565b60005b838110156131f2578154818901526001820191506020810190506131d3565b838801955050505b50505092915050565b600061320f828661313e565b915061321b828561313e565b91506132278284613184565b9150819050949350505050565b7f4f776e61626c653a206e6577206f776e657220697320746865207a65726f206160008201527f6464726573730000000000000000000000000000000000000000000000000000602082015250565b60006132906026836124bd565b915061329b82613234565b604082019050919050565b600060208201905081810360008301526132bf81613283565b9050919050565b7f4552433732313a206f70657261746f7220717565727920666f72206e6f6e657860008201527f697374656e7420746f6b656e0000000000000000000000000000000000000000602082015250565b6000613322602c836124bd565b915061332d826132c6565b604082019050919050565b6000602082019050818103600083015261335181613315565b9050919050565b7f4552433732313a207472616e73666572206f6620746f6b656e2074686174206960008201527f73206e6f74206f776e0000000000000000000000000000000000000000000000602082015250565b60006133b46029836124bd565b91506133bf82613358565b604082019050919050565b600060208201905081810360008301526133e3816133a7565b9050919050565b7f4552433732313a207472616e7366657220746f20746865207a65726f2061646460008201527f7265737300000000000000000000000000000000000000000000000000000000602082015250565b60006134466024836124bd565b9150613451826133ea565b604082019050919050565b6000602082019050818103600083015261347581613439565b9050919050565b60006134878261256d565b91506134928361256d565b9250828210156134a5576134a4612ca7565b5b828203905092915050565b7f4552433732313a20617070726f766520746f2063616c6c657200000000000000600082015250565b60006134e66019836124bd565b91506134f1826134b0565b602082019050919050565b60006020820190508181036000830152613515816134d9565b9050919050565b7f4552433732313a207472616e7366657220746f206e6f6e20455243373231526560008201527f63656976657220696d706c656d656e7465720000000000000000000000000000602082015250565b60006135786032836124bd565b91506135838261351c565b604082019050919050565b600060208201905081810360008301526135a78161356b565b9050919050565b60006135b98261256d565b91507fffffffffffffffffffffffffffffffffffffffffffffffffffffffffffffffff8214156135ec576135eb612ca7565b5b600182019050919050565b7f4e487b7100000000000000000000000000000000000000000000000000000000600052601260045260246000fd5b60006136318261256d565b915061363c8361256d565b92508261364c5761364b6135f7565b5b828204905092915050565b60006136628261256d565b915061366d8361256d565b92508261367d5761367c6135f7565b5b828206905092915050565b600081519050919050565b600082825260208201905092915050565b60006136af82613688565b6136b98185613693565b93506136c98185602086016124ce565b6136d281612501565b840191505092915050565b60006080820190506136f26000830187612602565b6136ff6020830186612602565b61370c6040830185612698565b818103606083015261371e81846136a4565b905095945050505050565b60008151905061373881612423565b92915050565b600060208284031215613754576137536123ed565b5b600061376284828501613729565b91505092915050565b7f4552433732313a206d696e7420746f20746865207a65726f2061646472657373600082015250565b60006137a16020836124bd565b91506137ac8261376b565b602082019050919050565b600060208201905081810360008301526137d081613794565b9050919050565b7f4552433732313a20746f6b656e20616c7265616479206d696e74656400000000600082015250565b600061380d601c836124bd565b9150613818826137d7565b602082019050919050565b6000602082019050818103600083015261383c81613800565b9050919050565b7f4e487b7100000000000000000000000000000000000000000000000000000000600052603160045260246000fdfea2646970667358221220d1f6cf08bdc4082bf91bab8b19acff95bc097708d5df6a9db9f866abccb31a9664736f6c63430008090033",
  "immutableReferences": {},
  "source": "// SPDX-License-Identifier: MIT\n\nimport \"@openzeppelin/contracts/token/ERC721/ERC721.sol\";\nimport \"@openzeppelin/contracts/token/ERC721/extensions/ERC721Enumerable.sol\";\nimport \"@openzeppelin/contracts/access/Ownable.sol\";\n\npragma solidity >=0.7.0 <0.9.0;\n//Fractional NFT Smart contract\n//Sends a Non fungible token to a vault which then creates tokens to \n//represent shares of the NFT (Non-Fungible-Token)\ncontract FractionalNFT is ERC721Enumerable, Ownable {\n    using Strings for uint256;\n\n    uint256 public cost = 1 ether;\n    uint256 public maxSupply = 20;\n\n    string baseURI;\n    string public baseExtension = \".json\";\n\n    constructor(\n        string memory _name,\n        string memory _symbol,\n        string memory _initBaseURI\n    ) ERC721(_name, _symbol) {\n        setBaseURI(_initBaseURI);\n    }\n\n    // Public functions\n    function mint() public payable {\n        uint256 supply = totalSupply();\n        require(supply <= maxSupply);\n\n        if (msg.sender != owner()) {\n            require(msg.value >= cost);\n        }\n\n        _safeMint(msg.sender, supply + 1);\n    }\n\n    function tokenURI(uint256 tokenId)\n        public\n        view\n        virtual\n        override\n        returns (string memory)\n    {\n        require(\n            _exists(tokenId),\n            \"ERC721Metadata: URI query for nonexistent token\"\n        );\n\n        string memory currentBaseURI = _baseURI();\n        return\n            bytes(currentBaseURI).length > 0\n                ? string(\n                    abi.encodePacked(\n                        currentBaseURI,\n                        tokenId.toString(),\n                        baseExtension\n                    )\n                )\n                : \"\";\n    }\n\n    // Internal functions\n    function _baseURI() internal view virtual override returns (string memory) {\n        return baseURI;\n    }\n\n    // Owner functions\n    function setBaseURI(string memory _newBaseURI) public onlyOwner {\n        baseURI = _newBaseURI;\n    }\n}\n",
  "sourcePath": "/Users/spaceboyace/fractional_nfts-master/contracts/FractionalNFT.sol",
  "compiler": {
    "name": "solc",
    "version": "0.8.9+commit.e5eed63a.Emscripten.clang"
  },
  "schemaVersion": "3.4.3",
  "updatedAt": "2022-03-01T01:30:45.969Z",
  "networkType": "ethereum",
  "devdoc": {
    "kind": "dev",
    "methods": {
      "approve(address,uint256)": {
        "details": "See {IERC721-approve}."
      },
      "balanceOf(address)": {
        "details": "See {IERC721-balanceOf}."
      },
      "getApproved(uint256)": {
        "details": "See {IERC721-getApproved}."
      },
      "isApprovedForAll(address,address)": {
        "details": "See {IERC721-isApprovedForAll}."
      },
      "name()": {
        "details": "See {IERC721Metadata-name}."
      },
      "owner()": {
        "details": "Returns the address of the current owner."
      },
      "ownerOf(uint256)": {
        "details": "See {IERC721-ownerOf}."
      },
      "renounceOwnership()": {
        "details": "Leaves the contract without owner. It will not be possible to call `onlyOwner` functions anymore. Can only be called by the current owner. NOTE: Renouncing ownership will leave the contract without an owner, thereby removing any functionality that is only available to the owner."
      },
      "safeTransferFrom(address,address,uint256)": {
        "details": "See {IERC721-safeTransferFrom}."
      },
      "safeTransferFrom(address,address,uint256,bytes)": {
        "details": "See {IERC721-safeTransferFrom}."
      },
      "setApprovalForAll(address,bool)": {
        "details": "See {IERC721-setApprovalForAll}."
      },
      "supportsInterface(bytes4)": {
        "details": "See {IERC165-supportsInterface}."
      },
      "symbol()": {
        "details": "See {IERC721Metadata-symbol}."
      },
      "tokenByIndex(uint256)": {
        "details": "See {IERC721Enumerable-tokenByIndex}."
      },
      "tokenOfOwnerByIndex(address,uint256)": {
        "details": "See {IERC721Enumerable-tokenOfOwnerByIndex}."
      },
      "tokenURI(uint256)": {
        "details": "See {IERC721Metadata-tokenURI}."
      },
      "totalSupply()": {
        "details": "See {IERC721Enumerable-totalSupply}."
      },
      "transferFrom(address,address,uint256)": {
        "details": "See {IERC721-transferFrom}."
      },
      "transferOwnership(address)": {
        "details": "Transfers ownership of the contract to a new account (`newOwner`). Can only be called by the current owner."
      }
    },
    "version": 1
  },
  "userdoc": {
    "kind": "user",
    "methods": {},
    "version": 1
  }
}